:020000040800F2
:10000000A80C0020C10C0008DF040008E10400086F
:10001000E5040008E9040008ED0400080000000001
:10002000000000000000000000000000F1040008D3
:10003000F304000800000000F5040008F7040008BD
:10004000DB0C0008DB0C0008DB0C0008DB0C0008F4
:10005000DB0C0008DB0C0008DB0C0008DB0C0008E4
:10006000DB0C0008DB0C0008DB0C0008DB0C0008D4
:10007000DB0C0008DB0C0008DB0C0008DB0C0008C4
:10008000DB0C0008DB0C0008DB0C0008FF04000898
:1000900001050008DB0C0008DB0C0008DB0C000885
:1000A000DB0C0008DB0C0008DB0C0008DB0C000894
:1000B000DB0C0008DD040008DB0C0008DB0C00088A
:1000C000DB0C0008DB0C0008DB0C0008DB0C000874
:1000D000DB0C0008D5040008DB0C0008DB0C000872
:1000E000DB0C0008DB0C0008DB0C0008DB0C000854
:1000F000DB0C0008DB0C0008DB0C0008DB0C000844
:10010000DB0C0008DB0C0008DB0C0008DB0C000833
:10011000DB0C0008DB0C0008DB0C0008DB0C000823
:10012000DB0C0008DB0C0008DB0C0008DB0C000813
:1001300000F002F800F05CF80AA090E8000C82449D
:100140008344AAF10107DA4501D100F051F8AFF27A
:10015000090EBAE80F0013F0010F18BFFB1A43F0A5
:1001600001031847DC390000FC3900000A444FF055
:10017000000C10F8013B13F0070408BF10F8014B06
:100180001D1108BF10F8015B641E05D010F8016B4B
:10019000641E01F8016BF9D113F0080F1EBF10F8AF
:1001A000014BAD1C0C1B09D16D1E58BF01F801CBD2
:1001B000FAD505E014F8016B01F8016B6D1EF9D555
:1001C0009142D6D37047000000230024002500266A
:1001D000103A28BF78C1FBD8520728BF30C148BFAA
:1001E0000B6070471FB503F060FC1FBD10B510BD5C
:1001F00003F021FC1146FFF7F5FF00F009F803F0CA
:100200003FFC03B4FFF7F2FF03BC03F047FC000020
:100210004FF4407000F058FE00F0B0F800F0D4F851
:1002200000F00AFD00F0BAFC204800F041FB01207C
:100230001F49087000F00CF91E4800684FF47A72EC
:10024000B0FBF2F1B1F1807F00D31DE021F07F40DF
:10025000401E4FF0E022506150170F22002807DAAD
:1002600013071D0E144B00F00F04241F1D5503E04F
:1002700013071C0E114B1C5400BF00204FF0E0224E
:1002800090610720106100BF00F03EF900F0C0FA55
:100290000B4908700846007818B15021042000F07E
:1002A00044FA01E000F020F8FCE7000020A107007C
:1002B000010000202400002018ED00E000E400E030
:1002C0000000002010B500F0C2FA88201E494870D6
:1002D00000F0A6FC10BD70477047704710B500F0E5
:1002E00046F800F03DF810BD10B518480088012808
:1002F00004DBFFF7E7FF002014490880144800885A
:10030000022804DBFFF7E7FF0020114908801148AD
:100310000088052804DBFFF7DFFF00200D49088077
:100320000D4800880A2804DBFFF7D7FF00200A49A0
:1003300008800A480088142804DBFFF7CFFF00205C
:100340000649088010BD0000C505002002000020FD
:100350000400002006000020080000200A00002001
:1003600010B54FF40051384800F029FF10BD10B50A
:100370004FF48051344800F022FF10BD08B5012130
:10038000082001F023F94FF44050ADF80000102090
:100390008DF8030003208DF8020069462A4800F01A
:1003A00061FEFFF7E4FFFFF7DBFF08BD10B54FF478
:1003B0008051254800F001FF10BD10B54FF40051E9
:1003C000214800F0FAFE10BD10B5FFF7D0FF1F481E
:1003D00000F04BF8FFF7EAFF1C4800F046F8FFF783
:1003E000C6FF1A4800F041F8FFF7E0FF174800F099
:1003F0003CF8FFF7BCFF154800F037F8FFF7D6FFD1
:10040000124800F032F810BD10B5FFF7A9FF0F48F1
:1004100000F02BF8FFF7D1FF0C4800F026F8FFF7AB
:100420009FFF0A4800F021F8FFF7C7FF074800F0D8
:100430001CF8FFF795FF054800F017F8FFF7BDFF20
:10044000024800F012F810BD000C014080841E002C
:1004500000B585B0684601F04CF816490098B0FB2D
:10046000F1F01549086005B000BD00E0401E00280D
:10047000FCD1704711480068401C104908601048C2
:100480000088401C0E4908800E480088401C0D4919
:1004900008800D480088401C0B4908800B480088E4
:1004A000401C0A4908800A480088401C0849088006
:1004B0007047000040420F000C0000201000002098
:1004C0000200002004000020060000200800002098
:1004D0000A00002010B500F067FA10BD70477047A1
:1004E00000BFFEE700BFFEE700BFFEE700BFFEE77C
:1004F00070477047704710B5FFF7BCFF10BD7047DD
:1005000010B503F04DF810BD00B587B001210846C5
:1005100001F05CF80121494800F073FE0121082038
:1005200001F054F80121042001F050F80121C80322
:1005300001F059F83820ADF8040001208DF80600CC
:1005400018208DF8070001A93D4800F08BFD4FF4FD
:100550008070ADF8040001208DF8060010208DF8A1
:10056000070001A9364800F07DFD8020ADF80400A9
:1005700001208DF8060010208DF8070001A93048F1
:1005800000F070FD80212E4800F017FE0020ADF82D
:1005900008004FF48270ADF80A000020ADF80C009E
:1005A000ADF80E00ADF810004FF40070ADF8120079
:1005B0000820ADF814000020ADF816000720ADF8B3
:1005C000180002A91F4801F08FF801211D4801F011
:1005D0002EF907B000BD10B5044600BF022119482E
:1005E00001F0AEF90028F9D02146164801F055F97E
:1005F00000BF0121134801F0A3F90028F9D01148E8
:1006000001F04DF9C0B210BD10B54FF480710C4827
:1006100000F0D3FD10BD10B54FF48071084800F014
:10062000CEFD10BD10B58021054800F0C6FD10BDFF
:1006300010B58021024800F0C2FD10BD000230005C
:10064000000C0140003C004070B505460C46FFF729
:10065000EFFF2846FFF7BFFF06462046FFF7BBFF28
:10066000FFF7E0FF304670BD70B50446FFF7E0FFCE
:100670002046FFF7B0FF0020FFF7ADFF0546FFF76C
:10068000D1FF284670BD2DE9F04107460D461646BC
:10069000FFF7CEFF3846FFF79EFF8046002404E0B8
:1006A000285DFFF798FF601CC4B2B442F8DBFFF787
:1006B000B9FF4046BDE8F0812DE9F04107460D46FF
:1006C0001646FFF7B5FF3846FFF785FF8046002442
:1006D00005E00020FFF77FFF2855601CC4B2B4423C
:1006E000F7DBFFF79FFF4046BDE8F08170B5044699
:1006F0000D46FFF790FF05226A492A20FFF7C3FF46
:100700002A462146A020FFF7BEFFFFF77DFF70BD00
:1007100070B504460D46FFF77EFF2A462146A82005
:10072000FFF7B1FFFFF770FF70BD70B504460D46CF
:10073000FFF771FF05225C492A20FFF7A4FF05227D
:1007400058493020FFF79FFF01212120FFF77CFF50
:1007500001212220FFF778FF1A212420FFF774FFE0
:1007600029462520FFF770FF0F212620FFF76CFF99
:10077000012C08D1FF213120FFF766FF0F21202037
:10078000FFF762FF41E0022C08D1FF213120FFF783
:100790005BFF0E212020FFF757FF36E0032C1AD114
:1007A000FF21E120FFF750FFFF21E220FFF74CFF80
:1007B0000F212020FFF748FF5020FFF70CFF732088
:1007C000FFF709FF01213C20FFF73EFF06213D20F6
:1007D000FFF73AFF19E00E212020FFF735FFFF2138
:1007E000E120FFF731FFFF21E220FFF72DFF50202E
:1007F000FFF7F1FE7320FFF7EEFE01213C20FFF72B
:1008000023FF06213D20FFF71FFFFFF7FDFE70BD10
:100810001CB5052223493020FFF735FF0522694624
:100820001020FFF749FF002408E01DF804001D49CF
:10083000095D884200D003E0601CC4B2052CF4DBE3
:1008400000BF052C01D101201CBD0020FCE770B5C4
:100850000720FFF709FF044614F0400F12D0602074
:10086000FFF702FF0546212D07DA2A460F496120CE
:10087000FFF722FFFFF7A1FD03E0FF21E220FFF7D2
:10088000E3FE00BF14F0100F06D014F0010F03D0E8
:10089000FF21E120FFF7D8FE21462720FFF7D4FEF5
:1008A00070BD000014000020190000206801002025
:1008B00010B588B004460121880300F087FE0121AD
:1008C000084600F083FE0121082000F07FFE402052
:1008D000ADF8040003208DF8060018208DF80700FD
:1008E00001A9A54800F0BEFB8020ADF8040003205C
:1008F0008DF8060004208DF8070001A99E4800F03D
:10090000B1FB0121042000F07CFC04940020ADF830
:100910001400ADF81600ADF81800ADF81C000C205E
:10092000ADF81A000020ADF80800ADF80A004FF449
:100930000070ADF80C000020ADF80E0004A98F483F
:1009400001F077F802A98D4801F0E8F8012240F2A1
:1009500025518A4801F005F90121884801F0F5F890
:1009600025208DF8000005208DF8010001208DF86C
:1009700002008DF80300684600F0ABFA08B010BD25
:1009800008B57E4801F012F8002240F225517B485C
:1009900001F0E7F825208DF8000000208DF8030015
:1009A000684600F096FA08BD10B50821734801F0BA
:1009B000AAF910B1714801F03CF97048008810F0B4
:1009C000800F1ED06D480C30008810F0800F18D0BA
:1009D0006B4801780078401C694A10706948405C97
:1009E0006649091D088010460078674909788842E1
:1009F00007D162480C30008820F080005F490C313C
:100A000008805E48008810F0200F6DD05B48001D04
:100A10000088C4B25D48007838B9AA2C05D10120FD
:100A20005A4908705A4804705DE058480078012817
:100A300007D1AA2C05D102205449087054484470AB
:100A400051E052480078022807D1F12C05DC032040
:100A50004E4908704E48847045E04C4800780328A1
:100A60000CD1FF2C0ADA0420484908704848C470A9
:100A70004848047000204849087034E04348007832
:100A8000042819D143480078002815DD4148007832
:100A9000401E40490870404800783F490978491C89
:100AA0003D4A1170001D3A490C543A480078D0B9BB
:100AB00005203649087016E03448007805280FD123
:100AC00000203249087034480078001D30490C5429
:100AD00031480078401DC1B22D48FFF707FE02E003
:100AE00000202A49087000BF10BD10B504462648F2
:100AF00001780078401C244A107022484454012296
:100B000040F227711D4801F02CF810BD10B50446C5
:100B10000FE020780D2802D1FFF7E7FF08E02078EA
:100B20000A2802D1FFF7E1FF02E02078FFF7DDFF9E
:100B3000641C20780028ECD110BD70B504460D4629
:100B400000200AE0225C10490B780978491C0E4EFF
:100B500031700C49CA54411CC8B2A842F2DB0748A4
:100B60000C30008810F0800F05D1012240F227716F
:100B7000024800F0F6FF70BD000C01400038014053
:100B80001E000020660300201F000020200000201F
:100B900066040020210000202200002010B502F091
:100BA00081FC02F06DFC02F053FC01F06BFE0020B2
:100BB0001349087002F0A1FC6420FFF756FC0120E5
:100BC00002F09BFC10BD70B50446002509E014F846
:100BD000012B2846691CCDB20A490A54402D00D188
:100BE00002E020780028F2D100BF40224FF48C713F
:100BF000044802F049F8022002F019F970BD000023
:100C0000820000200406002010B50246002004E007
:100C1000135C074C2354431CD8B28842F8DB10BD48
:100C200010B5FFF7C3FB20210248FFF75FFD10BDA1
:100C3000A5050020C505002008B50121102000F001
:100C4000C5FC0720ADF8000048208DF80300694678
:100C50001A4800F007FA08BD70B504460D4629464B
:100C6000204600F090FA78B92946204600F08BFA29
:100C700040B900BF2946204600F085FA0028F9D087
:100C8000002070BD0120FCE70120FAE710B501212A
:100C90000A48FFF7E1FF08B9FFF78FFB0221074879
:100CA000FFF7DAFF08B9FFF75BFB04210348FFF702
:100CB000D3FF08210148FFF7CFFF10BD001001400E
:100CC0000948804709480047FEE7FEE7FEE7FEE7E0
:100CD000FEE7FEE7FEE7FEE7FEE7FEE7044805491C
:100CE000054A064B70470000C90D00083101000895
:100CF000A8060020A80C0020A8080020A8080020B2
:100D000000210020674A126842F48032654B1A6065
:100D100000BF644A126802F40030491C10B9B1F5F2
:100D2000A06FF6D15F4A126812F4003F01D0012093
:100D300000E00020012842D15B4A126842F0100214
:100D4000594B1A601A46126822F003021A601A46BA
:100D5000126842F002021A60524A5268514B5A60BD
:100D60001A4652685A601A46526842F480625A60C3
:100D70001A46526822F47C125A601A46526842F4AB
:100D8000E8125A601A46126842F080721A6000BF78
:100D9000444A126812F0007FFAD0424A526822F0A8
:100DA0000302404B5A601A46526842F002025A60EF
:100DB00000BF3C4A526802F00C02082AF9D1704781
:100DC00010B5FFF79DFF10BD10B53648006840F024
:100DD00001003449086008464068344908403149F8
:100DE000486008460068324908402E4908600846B5
:100DF000006820F4802008600846406820F4FE0067
:100E000048604FF41F008860FFF7DAFF4FF0006082
:100E10002849086010BD10B5002100200022214B98
:100E20005B6803F00C0121B1042906D0082928D100
:100E300007E0214B214C236027E01F4B1F4C236010
:100E400023E0184B5B6803F47010164B5B6803F4E7
:100E50008032022303EB904022B9194B4343174CD5
:100E600023600DE00F4B5B6813F4003F04D0144B7C
:100E70004343124C236003E00F4B43430F4C23606A
:100E800003E00D4B0D4C236000BF00BF054B5B68BA
:100E9000C3F303130B4CE15C084B1B68CB40074CBE
:100EA000236010BD00100240002002400000FFF847
:100EB000FFFFF6FE08ED00E000127A00240000209B
:100EC00000093D002800002031490143314A1160EA
:100ED000704770B5002100230F22C4780CB32D4C4D
:100EE000246804F4E064C4F5E064210AC1F1040359
:100EF000CA40447804FA03F184781440214309017C
:100F0000254C0678A155047804F01F050124AC4057
:100F100005786D114FF0E02606EB8505C5F8004118
:100F200009E0047804F01F050124AC401B4D06784D
:100F3000761145F8264070BD194A0A400243154B08
:100F40001B1F1A60704739B1124A121D1268024302
:100F5000104B1B1D1A6006E00E4A121D12688243D8
:100F60000C4B1B1D1A607047042808D14FF0E0217C
:100F7000096941F004014FF0E022116107E04FF0F0
:100F8000E021096921F004014FF0E022116170476E
:100F90000000FA050CED00E000E400E080E100E074
:100FA00080FFFF1F10B50446CA48844208D10121C2
:100FB000042000F025FB0021042000F021FB46E086
:100FC000C548844208D10121082000F019FB002106
:100FD000082000F015FB3AE0C048844208D1012106
:100FE000102000F00DFB0021102000F009FB2EE086
:100FF000BB48844208D10121202000F001FB0021E0
:10100000202000F0FDFA22E0B648844208D10121F8
:10101000402000F0F5FA0021402000F0F1FA16E03F
:10102000B148844208D10121802000F0E9FA002172
:10103000802000F0E5FA0AE0AC48844207D10121A3
:10104000801500F0DDFA0021A01500F0D9FA10BDDE
:1010500010B50121084600F0D3FA0021012000F06C
:10106000CFFA10BD2DE9F0410246002500260020F0
:1010700000230024002791F803C00CF00F0591F81D
:1010800003C01CF0100F03D091F802C04CEA050514
:10109000B1F800C01CF0FF0F31D0146800202BE025
:1010A0004FF0010C0CFA00F3B1F800C00CEA030693
:1010B0009E4220D183004FF00F0C0CFA03F7BC4383
:1010C00005FA03FC4CEA040491F803C0BCF1280FB4
:1010D00006D14FF0010C0CFA00FCC2F814C00AE073
:1010E00091F803C0BCF1480F05D14FF0010C0CFA88
:1010F00000FCC2F810C0401C0828D1D31460B1F81D
:1011000000C0BCF1FF0F34DD546800202EE000F178
:10111000080C4FF0010808FA0CF3B1F800C00CEA13
:1011200003069E4221D183004FF00F0C0CFA03F707
:10113000BC4305FA03FC4CEA040491F803C0BCF17B
:10114000280F05D100F1080C08FA0CF8C2F8148039
:1011500091F803C0BCF1480F07D100F1080C4FF023
:10116000010808FA0CF8C2F81080401C0828CED3F9
:101170005460BDE8F0814FF6FF710180022181705B
:101180000421C17070470246002093680B4201D0D1
:10119000012000E0002070470146886880B2704757
:1011A00002460020D3680B4201D0012000E000205D
:1011B00070470146C86880B270470161704741615D
:1011C00070470AB1016100E041617047C16070473A
:1011D0004FF480320A43826181618261826982694F
:1011E000704702460020424B18684FF68073184043
:1011F00040EA021008433E4B186070473D49C86101
:101200007047F0B50A46002300240021002500F0B5
:101210000046B6F1004F02D1354EF16901E0344E7F
:101220007168C0F3034583B200F44016B6F5401F61
:1012300008D121F070612E4E766826F070662C4F32
:101240007E6012E000F48016B6F5801F06D10326FA
:1012500006FA05F4A14341F0706106E0460D36013F
:1012600003FA06F6B14341F0706122B1460D360132
:1012700003FA06F6314300F00046B6F1004F02D102
:101280001B4EF16101E01A4E7160F0BD30B50022D5
:101290008B071C0F0F2303FA04F2154B08338C1035
:1012A00053F824309343124C08348D1044F8253001
:1012B00023468C1053F824308C07240F00FA04F4D2
:1012C00023430B4C08348D1044F8253030BD0A49B7
:1012D0000860704700080140000C01400010014008
:1012E0000014014000180140001C01400020014092
:1012F0000000014000002042DC002042DC48006881
:1013000040F00100DA49086008464068D9490840C1
:10131000D749486008460068D7490840D449086062
:101320000846006820F4802008600846406820F4E1
:10133000FE0048604FF41F0088607047CC49096880
:1013400021F48031CA4A11601146096821F48021D4
:101350001160B0F5803F03D0B0F5802F0ED106E0CC
:10136000C349096841F48031C14A116007E0C049AE
:10137000096841F4A021BE4A116000E000BF00BF2F
:10138000704710B501460022002300204A11012AAF
:1013900002D1B74C236806E0022A02D1B44C236A7A
:1013A00001E0B34C636A01F01F02012494401C4227
:1013B00001D0012000E0002010BD70B50024002500
:1013C000002600BF3120FFF7DCFF0646641CB4F5A1
:1013D000A06F01D0002EF5D03120FFF7D2FF08B169
:1013E000012500E00025284670BD01460020A04AE6
:1013F000106820F0F80040EAC100106070479F4973
:101400000860704702460020994B586820F47C1011
:1014100042EA01031843964B5860704797490866A3
:10142000704701460020924A506820F003000843AC
:10143000506070478E48406800F00C0070470146CD
:1014400000208B4A506820F0F0000843506070473D
:1014500001460020864A506820F4E060084350604E
:10146000704701460020824A506820F4605040EAEC
:10147000C1005060704729B17D4A527A02437C4BCB
:101480005A7206E07A4A527AC343DBB21A40784B6A
:101490005A7270477A490860704701460020744AC2
:1014A000506820F440400843506070470021754A5E
:1014B00011706F4A82F82010012802D0042808D148
:1014C00003E001216F4A117004E005216D4A11709B
:1014D00000E000BF00BF70476B4908607047644977
:1014E000096A0143624A11627047674944390860DA
:1014F000704730B500210022002400235C4D6D6848
:1015000005F00C0121B1042905D0082923D105E0FB
:101510005E4D056022E05D4D05601FE0544D6D6835
:1015200005F47012524D6D6805F48034022505EB08
:1015300092421CB9564D554305600BE04C4D6D6809
:1015400015F4003F03D0524D5543056002E04F4D66
:101550005543056002E04D4D056000BF00BF444D9E
:101560006D6805F0F00109094A4D6B5C0568DD40C6
:1015700045603F4D6D6805F4E061090A454D6B5CBF
:101580004568DD4085603A4D6D6805F46051C90AD3
:10159000404D6B5C4568DD40C560354D6D6805F4B8
:1015A0004041890B3C4D6B5CC568B5FBF3F50561AB
:1015B00030BD29B12E4A526902432D4B5A6104E0D5
:1015C0002B4A526982432A4B5A61704729B1284AF3
:1015D00092690243264B9A6104E0254A926982434C
:1015E000234B9A61704729B1214AD2690243204BAB
:1015F000DA6104E01E4AD26982431D4BDA6170470A
:1016000029B11B4AD2680243194BDA6004E0184A38
:10161000D2688243164BDA60704729B1144A1269C6
:101620000243134B1A6104E0114A12698243104BC2
:101630001A61704714494039086070470F49C864FF
:1016400070470B49C87170470948406A40F0807084
:1016500007494862704701460020054A92680A42DD
:1016600001D0012000E000207047014988727047D6
:10167000001002400000FFF8FFFFF6FE00004242AB
:10168000D8004242201002408004424200127A00F8
:1016900000093D00380000204800002010B5044635
:1016A000BF48844208D101218014FFF7A9FF00211F
:1016B000A014FFF7A5FF16E0BA48844208D1012123
:1016C0000014FFF7AAFF00212014FFF7A6FF0AE08D
:1016D000B548844207D10121C013FFF79EFF0021C6
:1016E000E013FFF79AFF10BD10B50022028802F444
:1016F00041520B884C8823438C882343CC88234356
:101700000C8923434C8923438C892343CC8923436D
:101710001A430280838B4FF2FF74234083830B8A2A
:10172000038210BD2DE9F04F85B005460C464FF001
:10173000000902274FF000084FF0010B0026B246C7
:10174000A88B4FF240010840A88302202884B5F8F6
:101750001C90A068022801D100BF36E0A08810B913
:101760004FF0010B01E04FF0020B8E48854200D193
:1017700000E000BF6846FFF7BCFEDDF800A0E0888F
:10178000B0F5007F0AD14FEA1A2000EB800040003C
:10179000A168B0FBF1F0401D86B20BE04FEA4B10A0
:1017A000BAFBF0F000EB80004000A168B0FBF1F064
:1017B000401D86B20A20B6FBF0F606F00108A6EB43
:1017C0000800C0F34F074FEA0828022F01DBFF2F64
:1017D00002DD02274FF00008E08840EA08003843A5
:1017E0002884A088A1890843618808432188084388
:1017F00040F4006040EA0909A5F81C9005B0BDE876
:10180000F08F0021018041808180C1800181418170
:101810008181C181072101827047002101804180BF
:101820008180C1800221816000218181704721B1C6
:10183000028842F04002028004E002884FF6BF7343
:101840001A400280704721B1828B42F48062828309
:1018500004E0828B4FF6FF331A408283704770B5E5
:10186000002400230C110125A540ABB21AB18588D4
:101870001D43858004E08588DE43B6B2354085800F
:1018800070BD10B51AB183880B43838004E0838850
:10189000CC43A4B22340838010BD818170470146B0
:1018A00088897047A1F57E42FF3A04D0028842F44D
:1018B0008072028004E002884FF6FF631A400280C3
:1018C000704721B1828842F00402828004E082885D
:1018D0004FF6FB731A408280704702884FF2FF7305
:1018E0001A40028002880A4302807047018841F44E
:1018F00080510180704721B1028842F40052028079
:1019000004E002884DF6FF731A40028070470246D9
:101910000020012901D0108B00E0908A7047014619
:10192000088A7047B1F5804F04D1028842F48042A2
:10193000028004E002884BF6FF731A400280704771
:101940000246002013890B4201D0012000E0002054
:101950007047CA4302817047F0B502460020002458
:101960000023002501F00F070126BE40B4B20B1181
:1019700001269E40B3B2968806EA030516892642E0
:1019800002D00DB1012000E00020F0BD10B5002212
:1019900001F00F040123A3409AB2D343038110BD89
:1019A0000030014000380040003C004010B50446C3
:1019B000FC48844209D101218803FFF721FE002160
:1019C0004FF48040FFF71CFE32E0F748844209D113
:1019D00001214804FFF721FE00214FF40030FFF7FA
:1019E0001CFE25E0F148844209D101218804FFF75B
:1019F00014FE00214FF48020FFF70FFE18E0EC48A2
:101A0000844209D10121C804FFF707FE00214FF4E9
:101A10000020FFF702FE0BE0E648844208D10121D6
:101A20000805FFF7FAFD00214FF48010FFF7F5FDE0
:101A300010BD2DE9F04786B005460E460024A246AB
:101A400000BFA1460027B08900B100BF2F462C8AF5
:101A50004CF6FF700440F08804432C82AC894EF6AB
:101A6000F3100440B0883189084371890843044366
:101A7000AC81AC8A4FF6FF400440B0890443AC828D
:101A800001A8FFF736FDC748874202D1DDF810A054
:101A900001E0DDF80CA0A88910F4004F08D00AEB93
:101AA000CA0000EB0A1031684900B0FBF1F807E00A
:101AB0000AEBCA0000EB0A1031688900B0FBF1F8AC
:101AC0006420B8FBF0F004012009642101FB1089B7
:101AD000A88910F4004F08D0322000EBC900B0FBF9
:101AE000F1F000F00700044308E0322000EB091099
:101AF0006421B0FBF1F000F00F0004432C8106B02C
:101B0000BDE8F0874FF41651016000218180C1804B
:101B100001810C21418100218181704710B502466D
:101B20000020108A4FF2FF0318400B884C88234393
:101B30008C882343CC8823431843108210BD002196
:101B4000018041808180C180704721B1828942F447
:101B50000052828104E082894DF6FF731A4082812F
:101B60007047F0B503460024002600250020A1F5AB
:101B700010676A3F00D100BF1846C1F3421401F05C
:101B80001F06012707FA06F5012C01D10C3004E0ED
:101B9000022C01D1103000E014301AB107682F4335
:101BA000076002E00768AF430760F0BD10B51AB1E7
:101BB000838A0B43838204E0838ACC43A4B223400C
:101BC000838210BD028A4FF6F0731A400282028AA5
:101BD0000A430282704782894FF2FF731A40828162
:101BE00082890A438281704721B1828942F00202D0
:101BF000828104E082894FF6FD731A40828170472A
:101C0000028A4FF6DF731A400282028A0A43028276
:101C1000704721B1028A42F48042028204E0028AC3
:101C20004BF6FF731A4002827047C1F308028280AC
:101C3000704701468888C0F308007047818941F0E9
:101C4000010181817047028BD2B20283028B42EA8A
:101C5000012202837047028B02F47F420283028BCF
:101C60000A430283704721B1828A42F020028282B5
:101C700004E0828A4FF6DF731A408282704721B1F6
:101C8000828A42F01002828204E0828A4FF6EF7369
:101C90001A408282704721B1828A42F00802828211
:101CA00004E0828A4FF6F7731A408282704721B1AE
:101CB000828942F40042828103E08289C2F30E02EB
:101CC0008281704721B1828A42F40062828204E0FC
:101CD000828A4FF2FF731A4082827047828A4FF6DF
:101CE000FB731A408282828A0A438282704721B142
:101CF000828A42F00202828204E0828A4FF6FD73F9
:101D00001A408282704702460020B1F5007F00D160
:101D100000BF13880B4201D0012000E00020704773
:101D200001F40072B2F5007F00D100BFCA43028007
:101D3000704770B502460024002300250020A1F55D
:101D400010666A3E00D100BFC1F3421501F01F03C7
:101D5000012606FA03F3012D02D19689334006E0ED
:101D6000022D02D1168A334001E0968A33400C12CC
:101D7000012606FA04F41688344013B10CB1012090
:101D800000E0002070BD10B500220023A1F5106412
:101D90006A3C00D100BF0A1201249440A3B2DC4384
:101DA000048010BD0038014000440040004800405D
:101DB000004C00400050004010B504462CB90120F2
:101DC000FE4909680882002010BDFD4909680868BD
:101DD0008047FA4800680A30F6E710B5F74800680F
:101DE000C078F8494978884213DCF4480068807864
:101DF00078B9F2480068808858B9F0480068C0781F
:101E0000EE4909688872EE490968486880470020F1
:101E100010BD0220FCE710B504462CB90120E749AB
:101E200009680882002010BDE54909688868804774
:101E3000E24800680C30F6E710B5E04B1B68D97833
:101E4000DE4B1B685879E04B1B689A699047044643
:101E5000DA480068807AE8B13CB9D848006800796F
:101E600018B9D6480068807808B1022010BD8CB936
:101E7000D3490968C8688047D04800684079CF498D
:101E80000968C872CD480068C078CC4909680873F1
:101E90000020EBE70220E9E710B504462CB9022048
:101EA000C64909680882002010BD0020C749088083
:101EB000C2480068007810F07F0F1CD1BF49096844
:101EC000487A10F0200F05D0C049097841F002018E
:101ED000BE4A117010F0400F06D0BC49097801F0DD
:101EE000FE01BA4A117005E0B849097841F00101D4
:101EF000B64A117036E0B1480068007800F07F0003
:101F0000012801D1B148CFE7AC480068007800F063
:101F10007F00022824D1A94A1268517901F00F00EC
:101F200011F0800F0DD0AA4A52F8202002F03002A2
:101F3000102A14D1A54A127842F00102A34B1A705C
:101F40000DE0A34A52F8202002F44052B2F5805F1F
:101F500005D19E4A127842F001029C4B1A7001E0B2
:101F60000020A1E7964909680869804797489BE7E0
:101F70002DE9F04791480068007800F07F08B8F13B
:101F8000000F0AD18D480068407A00F0DF008B49CD
:101F9000096848720020BDE8F087B8F1020F78D1D7
:101FA00086480068408818B984480068007908B1FC
:101FB0000220F0E7DFF80C9280480068477927F0AC
:101FC00080052C467D480068407910F0800F05D0D0
:101FD0007F4850F8240000F0300604E07C4850F8B8
:101FE000240000F4405699F80000A84204D91EB11C
:101FF00072480068807A08B90220CCE717F0800F99
:102000000ED0734850F8240000F03000102839D169
:10201000E0B200F0EEFF3021E0B200F0ADFE31E0C2
:102020006B4850F8240000F44050B0F5805F29D18F
:10203000ACB9684890F82C10E0B201F061F864493E
:1020400051F8241089B24BF68F7201EA020080F435
:10205000805080F400505E4941F8240012E0E0B264
:1020600000F0B1FF5A4951F8241089B24BF68F7233
:1020700001EA020080F4805080F40050544941F895
:10208000240000BF4E49096848698047002082E764
:10209000FFE700BF02207EE72DE9F04147480068D6
:1020A000467926F080073C4644480068407910F0A5
:1020B000800F05D0464850F8240000F0300504E0B9
:1020C000434850F8240000F440553E480078A042B0
:1020D00008D93A480068408820B91DB137480068DF
:1020E000807A10B90220BDE8F08116F0800F0DD083
:1020F000374951F8241089B248F6BF7201EA02004C
:1021000080F01000324941F824000DE0304951F8C8
:10211000241089B24BF68F7201EA020080F48050DD
:102120002B4941F8240000BF254909688869804788
:102130000020D8E710B521480068407A40F0200020
:102140001E49096848721E490968C869804700200D
:1021500010BD10B5024619480068438A32B9888814
:10216000C01A164C24682082002010BD086818444C
:10217000FBE72DE9F0411148006800F110042688C2
:10218000A068C0B1BEB1A588B54200D93546A8B295
:10219000A168884707462088401B20806088284423
:1021A0006080002000F078FF8046AAB241463846A1
:1021B00000F084FD00BF2088C8B10DE0540000206D
:1021C00060000020C4000020580000204E000020C5
:1021D000005C0040C80000204FF44050FC490880DB
:1021E0000021084600F065FF3020FA490880208869
:1021F000A188884204DB0320F7490968087218E0C7
:102200002088002804DD0520F3490968087210E0E1
:10221000208870B90620F049096808720021EF484B
:10222000006880B2801CEE4A42F810103020E94964
:102230000880BDE8F0812DE9F047E748006800F12B
:1022400010052E88E4480068077AD6B9042F18D103
:10225000E448007801280FD10021E048006880B2EE
:10226000801CDF4A42F810103020DA49088000BF95
:102270000020DC49087003E007271020D5490880BA
:1022800027E0AC88A64201D8042000E002200746DF
:10229000B44200D93446A0B2A968884780460020DD
:1022A00000F0EEFE8146A2B24946404600F0ECFC4A
:1022B000A1B2002000F0FDFE2888001B288068885D
:1022C000204468803020C34908800002C04908804B
:1022D00000BFC14909680F72BDE8F08770B50226DA
:1022E000BD4800684478BC480068007810F07F0F53
:1022F0004AD1092C03D1FFF770FD064665E0052C95
:1023000014D1B5480068C0787F280BDCB24800685B
:10231000807838B9B0480068808818B9AE4800683D
:10232000807A08B108256BE000264EE0032C14D11A
:10233000A9480068C07801280DD1A74800688088A6
:1023400048B9A5480068407A10F0200F03D0FFF785
:10235000F1FE064639E0022637E0012C35D19E48D1
:102360000068C07801280DD19B480068808848B972
:1023700099480068407A10F0200F03D0FFF7F8FD6D
:10238000064622E0022620E093480068007800F02C
:102390007F00012805D10B2C17D1FFF74DFD064614
:1023A00013E08D480068007800F07F0002280BD110
:1023B000012C03D1FFF7DCFD064606E0032C04D117
:1023C000FFF76AFE064600E002264EB18648006826
:1023D0004169E0B288470646032E01D109250FE086
:1023E0000EB108250CE0062500217C48006880B26B
:1023F000801C7B4A42F8101030207649088000BFCC
:10240000754909680D7270BD2DE9F05F724800686A
:1024100045780027BA46062D1AD16F480068007823
:1024200010F07F0F13D16C4909688878012803D117
:102430006D490968CF690AE0022803D16A49096831
:102440000F6A04E0032802D1674909684F6A97E0E0
:10245000002D65D1604800684088002860D15E4842
:102460000068C08802285BD15B48006800790028BA
:1024700056D159480068007810F07F0F06D15648B1
:102480000068808810B9AFF2EF5779E052480068D1
:10249000007800F07F00012811D14F490968487980
:1024A000514909688A6900219047002868D14A4843
:1024B0000068807A002863D0AFF2236760E0464866
:1024C0000068007800F07F00022859D14248006877
:1024D000407900F00F0640480068407900F070092C
:1024E0003D480068407910F0800F06D03B485038D6
:1024F00050F8260000F0300805E03848503850F811
:10250000260000F4405839480078B04238D9B9F173
:10251000000F35D1B8F1000F32D0AFF283672FE052
:10252000082D08D12C480068007810F07F0F27D1C3
:10253000AFF27B7724E00A2D22D12748006800788B
:1025400000F07F0001281BD123480068807AB8B1D1
:1025500021480068408898B91F480068007978B918
:102560001D480068C08801280AD11B4909684879BC
:102570001D4909688A690021904708B9AFF2697757
:1025800057B115480068A0F812A013480068876189
:102590000020B84700240FE00F4A12685078124A12
:1025A0001268116988470446032C05D109200A499D
:1025B00009680872BDE8F09F07480068008AA0F526
:1025C0007F41FF3914D10920034909680872F1E7F6
:1025D000640000206600002054000020505C004091
:1025E000006000404C00002058000020C400002083
:1025F000022C03D099480068008A20B90820974926
:1026000009680872D6E795480068007810F0800FD6
:102610003BD092480068B0F806B090480068008A45
:10262000584504D98D490968A1F810B023E08B48BA
:102630000068008A89490968C98888421BDA874886
:102640000068008A8649096891F82C10884203DAEC
:102650000020844908700EE080480068008A8049A4
:10266000096891F82C1090FBF1F201FB120010B9EF
:1026700001207C4908707A48006890F82C1077484F
:1026800000688182FFF7D7FD06E0032073490968DF
:10269000087200037449088000BF8BE710B57348C7
:1026A00090F82C10002000F02BFD6C480068007A98
:1026B000082805D140026C49088010206C49088028
:1026C00066480068007A092801D1012010BD002069
:1026D000FCE708B56748006880B2001D664951F8FC
:1026E000100080B201EB400000905C480068007A66
:1026F00009282FD000980078584909680870009878
:10270000401C00900098007854490968487000986F
:10271000401C00900098801C0090009931F8020B3A
:10272000009100F08BFE4D49096848800098801C9C
:102730000090009931F8020B009100F07FFE4749AC
:10274000096888800098801C0090009800884349A0
:102750000968C88001204149096808723F4800683B
:10276000C08810B9FFF7BAFD01E0FFF74DFEFFF793
:1027700095FF08BD30B50146404B1A78002010E0A7
:10278000C3B23C4C503C54F823309BB248F68F7493
:102790002340C4B22343C4B2364D503D45F82430E3
:1027A000401C9042ECD341F08003324C241F236044
:1027B00030BD10B529480068047A022C01D0042CE1
:1027C00005D1FFF738FD25480068047A1CE0062C87
:1027D00019D122480068407805280ED11F480068AA
:1027E000007810F07F0F08D11C490968C878FFF7FE
:1027F000C1FF23490968086A804719490968886840
:102800008047082400E00824144909680C72FFF787
:1028100045FF10BD10B511480068047A032C01D0A3
:10282000052C05D1FFF7A5FC0C480068047A0EE0E2
:10283000072C05D10A490968C8688047082406E0C2
:10284000022C01D0042C01D1082400E00824034903
:1028500009680C72FFF722FF10BD7047540000207A
:10286000580000204C00002064000020C800002018
:1028700066000020505C004000600040C400002062
:102880006000002010B50848084908600220096867
:102890000872074807490860074808490860054961
:1028A00009680868804710BDE80500205400002032
:1028B000C800002058000020F80000206000002020
:1028C00010B5002476E147F6FF70E8490860E84853
:1028D000008800F00F00E7490870084600780028DB
:1028E0007ED1E2484438006800F44050E249088054
:1028F000DE484438006800F03000E0490880DB49D9
:102900004439096889B24BF68F7201EA020080F4FB
:102910000050D64944390860096889B248F6BF7248
:1029200001EA020080F02000D04944390860D04814
:10293000008810F0100F3BD10846006880B248F6BE
:102940000F710840C94944390860FFF732FFC74991
:102950004439096889B24BF68F7201EA0200C64910
:10296000098811F4805F01D080F48050C249098841
:1029700011F4005F01D080F40050BC494439086074
:10298000096889B248F6BF7201EA0200BB490988AA
:1029900011F0100F01D080F01000B849098811F033
:1029A000200F01D080F02000B0494439086010BDEC
:1029B000AE484438006884B214F0800F3ED0AB4873
:1029C0004438006880B248F60F710840A74944397E
:1029D0000860FFF7EEFEA5494439096889B200E0B6
:1029E000AEE04BF68F7201EA0200A349098811F4A8
:1029F000805F01D080F480509F49098811F4005F06
:102A000001D080F40050994944390860096889B2BE
:102A100048F6BF7201EA02009849098811F0100FC8
:102A200001D080F010009549098811F0200F01D0E5
:102A300080F020008D4944390860B8E714F4006F35
:102A40003DD08A4844380068C0F30E0048F68F71C4
:102A50000840864944390860FFF73BFE8349443902
:102A6000096889B24BF68F7201EA0200824909882F
:102A700011F4805F01D080F480507F49098811F4FF
:102A8000005F01D080F4005078494439086009683B
:102A900089B248F6BF7201EA02007849098811F04C
:102AA000100F01D080F010007449098811F0200F38
:102AB00001D080F020006D494439086077E714F4B4
:102AC000004F77D0694844380068C0F30E0048F6DC
:102AD0008F710840654944390860FFF79BFE6349E0
:102AE0004439096889B24BF68F7201EA02006249E3
:102AF000098811F4805F01D080F480505E49098814
:102B000011F4005F01D080F4005058494439086046
:102B1000096889B248F6BF7201EA0200574909887C
:102B200011F0100F01D080F010005449098811F005
:102B3000200F01D080F020004C494439086036E76E
:102B40004C4800784949443951F8200084B214F4C3
:102B5000004F15D04748007851F82000C0F30E0010
:102B600048F68F71084043490978404A443A42F890
:102B7000210040490978491E414A52F82100804706
:102B800014F0800F16D03B4800783849443951F88A
:102B9000200080B248F60F71084036490978334A60
:102BA000443A42F8210033490978491E354A52F81F
:102BB000210080472D48006880B22D49088010F41C
:102BC000004F7FF480AE00BFF1E610B5002444E072
:102BD00047F6FF70254908602548008800F00F007F
:102BE00024490870084600782049443951F82000EB
:102BF00084B214F4004F16D01E48007851F820001B
:102C0000C0F30E0048F68F7108401A490978174A38
:102C1000443A42F8210017490978491E184A52F8E7
:102C20002100804719E014F0800F16D01148007879
:102C30000E49443951F8200080B248F60F7108401F
:102C40000C490978094A443A42F8210009490978AF
:102C5000491E0C4A52F8210080470448006880B29F
:102C60000349088010F4004FB2D110BD445C00400D
:102C7000C0000020500000206400002066000020FA
:102C8000A400002088000020F0B5144604F1010CD7
:102C90004FEA6C07DFF844C00CEB41033D460AE005
:102CA0000678401C90F800C046EA0C2223F8022B5C
:102CB0009B1C401C6D1E002DF2D1F0BDF0B5561CC2
:102CC0007510064E06EB41042B4604E080CC20F83C
:102CD000017B401C5B1E002BF8D1F0BD0060004062
:102CE000F94908607047F848006880B27047F649B3
:102CF000091D08607047F448001D006880B27047E5
:102D0000F1480830006880B27047EF490C31086024
:102D10007047ED480C30006880B270474FF6F8718C
:102D20000140E94A103211607047E74810300068EE
:102D300080B27047E44A403A42F82010704701469A
:102D4000E148403850F8210080B27047DE4A403AEE
:102D500052F8202092B248F68F131A400A43DA4BF9
:102D6000403B43F8202070470146D748403850F890
:102D7000210000F4C060704710B5D34B403B53F8BE
:102D800020309BB248F6BF7403EA040211F0100F22
:102D900001D082F0100211F0200F01D082F0200249
:102DA000C94B403B43F8202010BD10B5C64B403BFB
:102DB00053F820309BB24BF68F7403EA040211F4EF
:102DC000805F01D082F4805211F4005F01D082F460
:102DD0000052BD4B403B43F8202010BD10B50246C9
:102DE0000B461046FFF7ABFF0446012B06D124F437
:102DF0008050B549403941F8220007E0022B05D147
:102E000024F01000B049403941F8220010BD0146BD
:102E1000AD48403850F8210000F0300070470146BE
:102E2000A948403850F8210000F440507047A64AA5
:102E3000403A52F8202092B248F6BF7302EA0301EA
:102E400081F0100181F020019F4A403A42F82010A1
:102E500070479D4A403A52F8202092B24BF68F7349
:102E600002EA030181F4805181F40051964A403A0C
:102E700042F8201070479449403951F8201089B227
:102E800041F4807148F68F7211408F4A403A42F8FF
:102E9000201070478C49403951F8201089B248F60B
:102EA0008F621140884A403A42F8201070478649A4
:102EB000403951F8201089B248F68F621140824A99
:102EC000403A42F8201070477F49403951F82010AD
:102ED00089B241F4807148F68F7211407A4A403AC3
:102EE00042F8201070477849403951F8201089B2D3
:102EF00041F4807148F68F721140734A403A42F8AB
:102F0000201070477049403951F8201089B248F6B6
:102F10008F6211406C4A403A42F8201070470146D7
:102F20006948403850F8210000F03000102801D1E5
:102F3000012070470020FCE701466348403850F804
:102F4000210000F44050B0F5805F01D101207047AE
:102F50000020FCE75C49403951F82010C1F30E0114
:102F600048F68F721140584A403A42F82010704794
:102F70005549403951F8201089B248F60F72114076
:102F8000514A403A42F8201070474F49403951F8B1
:102F9000201089B248F68F72114041F480414A4AAC
:102FA000403A42F8201070474749403951F8201004
:102FB00089B248F68F72114041F04001424A403ACE
:102FC00042F8201070474049403951F8201011F460
:102FD000804F0DD03C49403951F8201089B248F655
:102FE0008F72114041F48041374A403A42F8201034
:102FF00070473549403951F8201011F0400F0DD07D
:103000003149403951F8201089B248F68F72114089
:1030100041F040012C4A403A42F8201070472A4AB9
:10302000403A52F8202092B248F68F731A400A4371
:10303000254B403B43F8202070470146224840384A
:1030400050F8210000F00F00704710B54A105300EF
:103050001D4A1032126892B202EBC0021B4C44F8B7
:10306000123010BD10B54A105300174A10321268C2
:1030700092B202EBC002121D144C44F8123010BD83
:10308000014611481030006880B200EBC1000F4AC1
:1030900052F8100080B2704701460B4810300068AB
:1030A00080B200EBC100001D084A52F8100080B247
:1030B0007047054A1032126892B202EBC002921CAD
:1030C000024B43F812107047405C00400060004023
:1030D00002463E290BDD481111F01F0F01D1431E9E
:1030E00098B24FF4004343EA8023136007E048108E
:1030F00011F0010F01D0431C98B283021360704796
:1031000010B50246D048006880B200EBC200801DB6
:10311000CE4C04EB40033E290BDD481111F01F0F8C
:1031200001D1441EA0B24FF4004444EA80241C6044
:1031300007E0481011F0010F01D0441CA0B2840236
:103140001C6010BD0146C048006880B200EBC100A1
:10315000801CBE4A52F81000C0F3090070470146B7
:10316000B948006880B200EBC100801DB74A52F830
:103170001000C0F30900704730B54B105C00B24B33
:103180001B689BB203EBC003B04D45F813405310CE
:103190005C00AD4B1B689BB203EBC0031B1D45F8E5
:1031A000134030BD10B54A105300A74A126892B2BE
:1031B00002EBC002A54C44F8123010BD10B54A1005
:1031C0005300A14A126892B202EBC002121D9F4C3A
:1031D00044F8123010BD01469B48006880B200EBF5
:1031E000C1009A4A52F8100080B2704701469648D2
:1031F000006880B200EBC100001D944A52F8100034
:1032000080B2704730B50B46012B1FD18E4909683B
:1032100089B201EBC001891C8C4D05EB41043E2AAB
:103220000BDD511112F01F0F01D14D1EA9B24FF449
:10323000004545EA8125256007E0511012F0010F95
:1032400001D04D1CA9B28D0225600AE0022B08D1E5
:103250007D49096889B201EBC001891C7B4C44F8A7
:103260001120012B1FD17849096889B201EBC001F7
:10327000891D764D05EB41043E2A0BDD511112F0FC
:103280001F0F01D14D1EA9B24FF4004545EA81251B
:10329000256007E0511012F0010F01D04D1CA9B2BA
:1032A0008D0225600AE0022B08D16749096889B2BE
:1032B00001EBC001891D654C44F8112030BD30B5CB
:1032C000034601291FD16048006880B200EBC300AB
:1032D000801C5E4D05EB40043E2A0BDD501112F0C0
:1032E0001F0F01D1451EA8B24FF4004545EA8025C5
:1032F000256007E0501012F0010F01D0451CA8B264
:10330000850225600AE0022908D14F48006880B292
:1033100000EBC300801C4D4C44F8102030BD30B58C
:10332000034601291FD14848006880B200EBC30062
:10333000801D464D05EB40043E2A0BDD501112F076
:103340001F0F01D1451EA8B24FF4004545EA802564
:10335000256007E0501012F0010F01D0451CA8B203
:10336000850225600AE0022908D13748006880B24A
:1033700000EBC300801D354C44F8102030BD0146E1
:103380003148006880B200EBC100801C2F4A52F81F
:103390001000C0F30900704701462B48006880B256
:1033A00000EBC100801D294A52F81000C0F309004B
:1033B000704701462448006880B200EBC100801DC0
:1033C000224A52F8100010F47C4F01D001207047BF
:1033D0001D48006880B200EBC100801C1B4A52F8F7
:1033E00010008005800D01D00220F0E70020EEE7FC
:1033F00001290ED1144A503A52F8202092B248F6D0
:103400008F731A4042F040020F4B503B43F820208C
:103410000FE002290DD10C4A503A52F8202092B206
:1034200048F68F731A4042F48042074B503B43F8F2
:1034300020207047024641EA022070470146CAB286
:103440000B1243EA02207047505C004000600040CD
:1034500010B50020FEF71EF80121C805FEF7C3F8DD
:1034600010BD03203849086070473848817A19B187
:103470000521354A116002E00121334A116070478D
:1034800008B514208DF8000001208DF801000020FF
:103490008DF8020001208DF803006846FDF719FD44
:1034A00008BD7047704710B500212948FEF79BF80A
:1034B00000214FF6FD70FEF789F810BD10B5254BC1
:1034C00018681B1D19681B1D1A68A8B1224CA07032
:1034D000030A2371030CA371030E2372A1720B0A5A
:1034E00023730B0CA3730B0E2374A274130A23759E
:1034F000130CA375130E237610BD10B504460121DD
:103500000420FEF763F83CB11448006880B220F054
:1035100002001249086016E01048006880B240F0CE
:1035200002000E4908600E48006820F47F200C4914
:1035300008600846006840F44C3008608914084868
:10354000001FFDF73CFE10BD60010020E8050020D3
:103550003FC8FE3AE8F7FF1F68000020405C0040CB
:103560000408014010B5402298210A48FFF7A6FB45
:103570000120094908704FF44051FFF716FC10BDB7
:10358000002004E00021054A1154411CC8B2402823
:10359000F8DB70476605002082000020040600204A
:1035A00010B537480068374908800846008800F49D
:1035B000806035490988084206D04FF6FF3030490F
:1035C00008603249486880472E48008800F400505F
:1035D0002D490988084203D04DF6FF70284908603C
:1035E0002848008800F4805027490988084206D0FE
:1035F0004EF6FF7022490860002000F0BEF9214815
:10360000008800F400602049098808420CD0204856
:10361000007810B100F091F902E0022000F0ADF95D
:103620004FF2FF70164908601648008800F40070D9
:1036300015490988084208D04FF6FF501049086024
:1036400014480078401C134908700E48008800F4A4
:1036500080700D490988084206D04FF6FF6008497E
:103660000860072000F089F90648008800F400404F
:1036700005490988084201D0FFF722F910BD000072
:10368000445C0040C00000205E000020C800002014
:10369000640100208400002010B5FFF70FFF002018
:1036A00085490968887200F01FF900208349086085
:1036B0004FF43F4082490880084600887F49091F2F
:1036C000086000207F49086010BD10B500207A49CD
:1036D0000968887278490968C8727B48C079764958
:1036E000096848720020FFF719FB4FF400710020B1
:1036F000FFF72CFB10210020FFF73EFB18210020D4
:10370000FFF7B0FC58210020FFF79FFC0020FFF7D7
:10371000CEFB6E4890F82C100020FFF7F1FC002043
:10372000FFF797FB4FF4C0610120FFF70FFB9821D3
:103730000120FFF797FC40210120FFF7E1FC4FF447
:1037400040510120FFF731FB4FF4C0610220FFF729
:10375000FDFA4FF48C710220FFF777FC4021022024
:10376000FFF7A7FC20210220FFF706FB01205549A7
:1037700008600020FEF7FEFF10BD4F480068807A09
:1037800010B105204F490860704704204D4908607A
:10379000704770477047014629B90120464A1268B0
:1037A0001082002070474A48FCE710B5044649499A
:1037B0002046FEF7CEFC10BD10B504464649204613
:1037C000FEF7C7FC10BD70B504460025062C1AD1C3
:1037D00039480068007800F07F00012813D136488E
:1037E0000068407978B9344800688078222802D18E
:1037F000AFF23B0512E030480068807821280DD1F7
:10380000AFF259050AE02C480068007800F07F000C
:10381000212803D1032C01D1AFF285050DB9022077
:1038200070BD2548006885610021234800684182F9
:103830000020A8470020F3E71F480068C17824480B
:1038400001600020704700B502461B480068007800
:1038500000F07F00212804D10B2A02D1FFF7ECFFF2
:1038600000BD0220FCE710B504461C492046FEF7C7
:1038700070FC10BD10B5044619492046FEF769FCDE
:1038800010BD70B505460C480068C478042C01DDF5
:10389000002070BD134800EBC4012846FEF759FC18
:1038A000F7E70246002901DD02207047002A01DD0A
:1038B0000220FAE70020F8E754000020445C0040B2
:1038C0005E00002060010020CA3A0008C800002005
:1038D0005C010020340100202C0100201C0100208C
:1038E000240100203C01002010B50120FFF7D9FD84
:1038F00001244C48046000204B4908800846008899
:10390000484908600020091D08604FF4E05046490E
:1039100008800846008843490860002010BD10B5A3
:103920000120404908600020091D0860FFF7B9FD2B
:1039300003203C490860002010BD10B539480068DC
:1039400084B244F0080437480460006884B244F04C
:10395000040434480460FFF784FD10BD10B53148FD
:10396000006884B224F004042E480460FFF77DFD53
:103970004FF43F402B49086010BD70B50546072D38
:1039800001D02A48057029480078082841D2DFE88C
:1039900000F0040A1016212E4142FFF7DFFF062037
:1039A000224908703BE0FFF7D9FF04201F49087047
:1039B00035E002201D494870032008702FE01B48A5
:1039C0004078401E194948700846407808B90420DC
:1039D000087024E01348006884B244F010041148D1
:1039E00004600520114908700A20487017E00F484C
:1039F0004078401E0D4948700846407840B9094853
:103A0000006884B224F010040648046006200870A0
:103A100005E000BF00BF06200449087000BF00BFDA
:103A200070BD0000405C00405E0000206501002089
:103A3000704770477047754600F028F8AE4605009D
:103A40006946534620F00700854618B020B5FDF7BB
:103A500045F9BDE820404FF000064FF000074FF059
:103A600000084FF0000B21F00701AC46ACE8C0099C
:103A7000ACE8C009ACE8C009ACE8C0098D467047A5
:103A80000446AFF300802046FCF7BBFB00487047BC
:103A900044060020004870474806002001491820CD
:103AA000ABBEFEE726000200704710B5FFF7F2FF3D
:103AB0004FF00001016010BD120100020000004043
:103AC000830410A00003010203010902290001017F
:103AD00000C03209040000020300000009211001A7
:103AE00000012221000705820340000107050103B0
:103AF000400001058C0901A101090315002600FF02
:103B0000750895408102090415002600FF75089587
:103B1000409102C004030904140341004E004F0009
:103B2000540043005F004800490044001203540061
:103B30006F006E006700580069006E0031000000E1
:103B4000603B000800000020680100006C010008D4
:103B5000FC3B000868010020400B0000C801000881
:103B6000011414AABBCC3A01057184A24A04680965
:103B700001020304060708090C6910051C0204066B
:103B800008141A0378A9020110135B281408813560
:103B90002A0808E9040A1565182904411A03A8131C
:103BA00099361B08CB041393371B0895041AC704D6
:103BB0001347381B08A3041A67041A75041A8304F0
:103BC000415A40701A7B240916581A8B1C13B83AB4
:103BD0003308121ACA0832291AF30832211ADC08EB
:103BE000320913143B3308041A180832141A2C082B
:0C3BF00029302268B3201A199F11000030
:0400000508000131BD
:00000001FF
